{
  "_format": "hh-sol-artifact-1",
  "contractName": "DelegateEvidence",
  "sourceName": "contracts/DelegateEvidence.sol",
  "abi": [
    {
      "inputs": [
        {
          "internalType": "address",
          "name": "_coreEvidence",
          "type": "address"
        }
      ],
      "stateMutability": "nonpayable",
      "type": "constructor"
    },
    {
      "anonymous": false,
      "inputs": [
        {
          "indexed": true,
          "internalType": "address",
          "name": "previousOwner",
          "type": "address"
        },
        {
          "indexed": true,
          "internalType": "address",
          "name": "newOwner",
          "type": "address"
        }
      ],
      "name": "OwnershipTransferred",
      "type": "event"
    },
    {
      "inputs": [],
      "name": "owner",
      "outputs": [
        {
          "internalType": "address",
          "name": "",
          "type": "address"
        }
      ],
      "stateMutability": "view",
      "type": "function"
    },
    {
      "inputs": [],
      "name": "renounceOwnership",
      "outputs": [],
      "stateMutability": "nonpayable",
      "type": "function"
    },
    {
      "inputs": [
        {
          "internalType": "address",
          "name": "_address",
          "type": "address"
        },
        {
          "internalType": "uint64",
          "name": "_timestamp",
          "type": "uint64"
        },
        {
          "internalType": "bytes",
          "name": "_evidence",
          "type": "bytes"
        }
      ],
      "name": "submitEvidence",
      "outputs": [],
      "stateMutability": "nonpayable",
      "type": "function"
    },
    {
      "inputs": [
        {
          "internalType": "address",
          "name": "newOwner",
          "type": "address"
        }
      ],
      "name": "transferOwnership",
      "outputs": [],
      "stateMutability": "nonpayable",
      "type": "function"
    }
  ],
  "bytecode": "0x60a060405234801561001057600080fd5b506040516109fd3803806109fd8339818101604052810190610032919061016c565b61004e61004361008b60201b60201c565b61009360201b60201c565b8073ffffffffffffffffffffffffffffffffffffffff1660808173ffffffffffffffffffffffffffffffffffffffff1660601b81525050506101de565b600033905090565b60008060009054906101000a900473ffffffffffffffffffffffffffffffffffffffff169050816000806101000a81548173ffffffffffffffffffffffffffffffffffffffff021916908373ffffffffffffffffffffffffffffffffffffffff1602179055508173ffffffffffffffffffffffffffffffffffffffff168173ffffffffffffffffffffffffffffffffffffffff167f8be0079c531659141344cd1fd0a4f28419497f9722a3daafe3b4186f6b6457e060405160405180910390a35050565b600081519050610166816101c7565b92915050565b60006020828403121561017e57600080fd5b600061018c84828501610157565b91505092915050565b60006101a0826101a7565b9050919050565b600073ffffffffffffffffffffffffffffffffffffffff82169050919050565b6101d081610195565b81146101db57600080fd5b50565b60805160601c6108016101fc60003960006101e001526108016000f3fe608060405234801561001057600080fd5b506004361061004c5760003560e01c8063715018a6146100515780638da5cb5b1461005b578063ce11437714610079578063f2fde38b14610095575b600080fd5b6100596100b1565b005b610063610139565b604051610070919061060a565b60405180910390f35b610093600480360381019061008e91906104ed565b610162565b005b6100af60048036038101906100aa91906104c4565b61028c565b005b6100b9610384565b73ffffffffffffffffffffffffffffffffffffffff166100d7610139565b73ffffffffffffffffffffffffffffffffffffffff161461012d576040517f08c379a00000000000000000000000000000000000000000000000000000000081526004016101249061068a565b60405180910390fd5b610137600061038c565b565b60008060009054906101000a900473ffffffffffffffffffffffffffffffffffffffff16905090565b61016a610384565b73ffffffffffffffffffffffffffffffffffffffff16610188610139565b73ffffffffffffffffffffffffffffffffffffffff16146101de576040517f08c379a00000000000000000000000000000000000000000000000000000000081526004016101d59061068a565b60405180910390fd5b7f000000000000000000000000000000000000000000000000000000000000000073ffffffffffffffffffffffffffffffffffffffff166373d32586858530868660405161022d9291906105f1565b60405180910390206040518563ffffffff1660e01b81526004016102549493929190610625565b600060405180830381600087803b15801561026e57600080fd5b505af1158015610282573d6000803e3d6000fd5b5050505050505050565b610294610384565b73ffffffffffffffffffffffffffffffffffffffff166102b2610139565b73ffffffffffffffffffffffffffffffffffffffff1614610308576040517f08c379a00000000000000000000000000000000000000000000000000000000081526004016102ff9061068a565b60405180910390fd5b600073ffffffffffffffffffffffffffffffffffffffff168173ffffffffffffffffffffffffffffffffffffffff161415610378576040517f08c379a000000000000000000000000000000000000000000000000000000000815260040161036f9061066a565b60405180910390fd5b6103818161038c565b50565b600033905090565b60008060009054906101000a900473ffffffffffffffffffffffffffffffffffffffff169050816000806101000a81548173ffffffffffffffffffffffffffffffffffffffff021916908373ffffffffffffffffffffffffffffffffffffffff1602179055508173ffffffffffffffffffffffffffffffffffffffff168173ffffffffffffffffffffffffffffffffffffffff167f8be0079c531659141344cd1fd0a4f28419497f9722a3daafe3b4186f6b6457e060405160405180910390a35050565b60008135905061045f8161079d565b92915050565b60008083601f84011261047757600080fd5b8235905067ffffffffffffffff81111561049057600080fd5b6020830191508360018202830111156104a857600080fd5b9250929050565b6000813590506104be816107b4565b92915050565b6000602082840312156104d657600080fd5b60006104e484828501610450565b91505092915050565b6000806000806060858703121561050357600080fd5b600061051187828801610450565b9450506020610522878288016104af565b935050604085013567ffffffffffffffff81111561053f57600080fd5b61054b87828801610465565b925092505092959194509250565b610562816106c6565b82525050565b610571816106d8565b82525050565b600061058383856106aa565b9350610590838584610716565b82840190509392505050565b60006105a96026836106b5565b91506105b482610725565b604082019050919050565b60006105cc6020836106b5565b91506105d782610774565b602082019050919050565b6105eb81610702565b82525050565b60006105fe828486610577565b91508190509392505050565b600060208201905061061f6000830184610559565b92915050565b600060808201905061063a6000830187610559565b61064760208301866105e2565b6106546040830185610559565b6106616060830184610568565b95945050505050565b600060208201905081810360008301526106838161059c565b9050919050565b600060208201905081810360008301526106a3816105bf565b9050919050565b600081905092915050565b600082825260208201905092915050565b60006106d1826106e2565b9050919050565b6000819050919050565b600073ffffffffffffffffffffffffffffffffffffffff82169050919050565b600067ffffffffffffffff82169050919050565b82818337600083830152505050565b7f4f776e61626c653a206e6577206f776e657220697320746865207a65726f206160008201527f6464726573730000000000000000000000000000000000000000000000000000602082015250565b7f4f776e61626c653a2063616c6c6572206973206e6f7420746865206f776e6572600082015250565b6107a6816106c6565b81146107b157600080fd5b50565b6107bd81610702565b81146107c857600080fd5b5056fea2646970667358221220fd59c22e4594f0ed5df8ac95117bf3bea6be8bcbb5b7595dd3432b242c7730e464736f6c63430008040033",
  "linkReferences": {},
  "deployedLinkReferences": {}
}